{
  "contractName": "LotsOfLaugh",
  "abi": [
    {
      "inputs": [],
      "stateMutability": "nonpayable",
      "type": "constructor"
    },
    {
      "anonymous": false,
      "inputs": [
        {
          "indexed": true,
          "internalType": "address",
          "name": "owner",
          "type": "address"
        },
        {
          "indexed": true,
          "internalType": "address",
          "name": "approved",
          "type": "address"
        },
        {
          "indexed": true,
          "internalType": "uint256",
          "name": "tokenId",
          "type": "uint256"
        }
      ],
      "name": "Approval",
      "type": "event"
    },
    {
      "anonymous": false,
      "inputs": [
        {
          "indexed": true,
          "internalType": "address",
          "name": "owner",
          "type": "address"
        },
        {
          "indexed": true,
          "internalType": "address",
          "name": "operator",
          "type": "address"
        },
        {
          "indexed": false,
          "internalType": "bool",
          "name": "approved",
          "type": "bool"
        }
      ],
      "name": "ApprovalForAll",
      "type": "event"
    },
    {
      "anonymous": false,
      "inputs": [
        {
          "indexed": true,
          "internalType": "address",
          "name": "previousOwner",
          "type": "address"
        },
        {
          "indexed": true,
          "internalType": "address",
          "name": "newOwner",
          "type": "address"
        }
      ],
      "name": "OwnershipTransferred",
      "type": "event"
    },
    {
      "anonymous": false,
      "inputs": [
        {
          "indexed": true,
          "internalType": "address",
          "name": "from",
          "type": "address"
        },
        {
          "indexed": true,
          "internalType": "address",
          "name": "to",
          "type": "address"
        },
        {
          "indexed": true,
          "internalType": "uint256",
          "name": "tokenId",
          "type": "uint256"
        }
      ],
      "name": "Transfer",
      "type": "event"
    },
    {
      "inputs": [],
      "name": "MAX_PUBLIC_MINT",
      "outputs": [
        {
          "internalType": "uint256",
          "name": "",
          "type": "uint256"
        }
      ],
      "stateMutability": "view",
      "type": "function"
    },
    {
      "inputs": [],
      "name": "MAX_SUPPLY",
      "outputs": [
        {
          "internalType": "uint256",
          "name": "",
          "type": "uint256"
        }
      ],
      "stateMutability": "view",
      "type": "function"
    },
    {
      "inputs": [],
      "name": "PRICE_PER_TOKEN",
      "outputs": [
        {
          "internalType": "uint256",
          "name": "",
          "type": "uint256"
        }
      ],
      "stateMutability": "view",
      "type": "function"
    },
    {
      "inputs": [],
      "name": "PROVENANCE",
      "outputs": [
        {
          "internalType": "string",
          "name": "",
          "type": "string"
        }
      ],
      "stateMutability": "view",
      "type": "function"
    },
    {
      "inputs": [
        {
          "internalType": "address",
          "name": "to",
          "type": "address"
        },
        {
          "internalType": "uint256",
          "name": "tokenId",
          "type": "uint256"
        }
      ],
      "name": "approve",
      "outputs": [],
      "stateMutability": "nonpayable",
      "type": "function"
    },
    {
      "inputs": [
        {
          "internalType": "address",
          "name": "owner",
          "type": "address"
        }
      ],
      "name": "balanceOf",
      "outputs": [
        {
          "internalType": "uint256",
          "name": "",
          "type": "uint256"
        }
      ],
      "stateMutability": "view",
      "type": "function"
    },
    {
      "inputs": [
        {
          "internalType": "uint256",
          "name": "tokenId",
          "type": "uint256"
        }
      ],
      "name": "getApproved",
      "outputs": [
        {
          "internalType": "address",
          "name": "",
          "type": "address"
        }
      ],
      "stateMutability": "view",
      "type": "function"
    },
    {
      "inputs": [
        {
          "internalType": "address",
          "name": "owner",
          "type": "address"
        },
        {
          "internalType": "address",
          "name": "operator",
          "type": "address"
        }
      ],
      "name": "isApprovedForAll",
      "outputs": [
        {
          "internalType": "bool",
          "name": "",
          "type": "bool"
        }
      ],
      "stateMutability": "view",
      "type": "function"
    },
    {
      "inputs": [],
      "name": "name",
      "outputs": [
        {
          "internalType": "string",
          "name": "",
          "type": "string"
        }
      ],
      "stateMutability": "view",
      "type": "function"
    },
    {
      "inputs": [],
      "name": "owner",
      "outputs": [
        {
          "internalType": "address",
          "name": "",
          "type": "address"
        }
      ],
      "stateMutability": "view",
      "type": "function"
    },
    {
      "inputs": [
        {
          "internalType": "uint256",
          "name": "tokenId",
          "type": "uint256"
        }
      ],
      "name": "ownerOf",
      "outputs": [
        {
          "internalType": "address",
          "name": "",
          "type": "address"
        }
      ],
      "stateMutability": "view",
      "type": "function"
    },
    {
      "inputs": [],
      "name": "renounceOwnership",
      "outputs": [],
      "stateMutability": "nonpayable",
      "type": "function"
    },
    {
      "inputs": [],
      "name": "royaltyAddress",
      "outputs": [
        {
          "internalType": "address",
          "name": "",
          "type": "address"
        }
      ],
      "stateMutability": "view",
      "type": "function"
    },
    {
      "inputs": [],
      "name": "royaltyBps",
      "outputs": [
        {
          "internalType": "uint96",
          "name": "",
          "type": "uint96"
        }
      ],
      "stateMutability": "view",
      "type": "function"
    },
    {
      "inputs": [
        {
          "internalType": "uint256",
          "name": "_tokenId",
          "type": "uint256"
        },
        {
          "internalType": "uint256",
          "name": "_salePrice",
          "type": "uint256"
        }
      ],
      "name": "royaltyInfo",
      "outputs": [
        {
          "internalType": "address",
          "name": "",
          "type": "address"
        },
        {
          "internalType": "uint256",
          "name": "",
          "type": "uint256"
        }
      ],
      "stateMutability": "view",
      "type": "function"
    },
    {
      "inputs": [
        {
          "internalType": "address",
          "name": "from",
          "type": "address"
        },
        {
          "internalType": "address",
          "name": "to",
          "type": "address"
        },
        {
          "internalType": "uint256",
          "name": "tokenId",
          "type": "uint256"
        }
      ],
      "name": "safeTransferFrom",
      "outputs": [],
      "stateMutability": "nonpayable",
      "type": "function"
    },
    {
      "inputs": [
        {
          "internalType": "address",
          "name": "from",
          "type": "address"
        },
        {
          "internalType": "address",
          "name": "to",
          "type": "address"
        },
        {
          "internalType": "uint256",
          "name": "tokenId",
          "type": "uint256"
        },
        {
          "internalType": "bytes",
          "name": "_data",
          "type": "bytes"
        }
      ],
      "name": "safeTransferFrom",
      "outputs": [],
      "stateMutability": "nonpayable",
      "type": "function"
    },
    {
      "inputs": [],
      "name": "saleIsActive",
      "outputs": [
        {
          "internalType": "bool",
          "name": "",
          "type": "bool"
        }
      ],
      "stateMutability": "view",
      "type": "function"
    },
    {
      "inputs": [
        {
          "internalType": "address",
          "name": "operator",
          "type": "address"
        },
        {
          "internalType": "bool",
          "name": "approved",
          "type": "bool"
        }
      ],
      "name": "setApprovalForAll",
      "outputs": [],
      "stateMutability": "nonpayable",
      "type": "function"
    },
    {
      "inputs": [],
      "name": "symbol",
      "outputs": [
        {
          "internalType": "string",
          "name": "",
          "type": "string"
        }
      ],
      "stateMutability": "view",
      "type": "function"
    },
    {
      "inputs": [
        {
          "internalType": "uint256",
          "name": "index",
          "type": "uint256"
        }
      ],
      "name": "tokenByIndex",
      "outputs": [
        {
          "internalType": "uint256",
          "name": "",
          "type": "uint256"
        }
      ],
      "stateMutability": "view",
      "type": "function"
    },
    {
      "inputs": [
        {
          "internalType": "address",
          "name": "owner",
          "type": "address"
        },
        {
          "internalType": "uint256",
          "name": "index",
          "type": "uint256"
        }
      ],
      "name": "tokenOfOwnerByIndex",
      "outputs": [
        {
          "internalType": "uint256",
          "name": "",
          "type": "uint256"
        }
      ],
      "stateMutability": "view",
      "type": "function"
    },
    {
      "inputs": [
        {
          "internalType": "uint256",
          "name": "tokenId",
          "type": "uint256"
        }
      ],
      "name": "tokenURI",
      "outputs": [
        {
          "internalType": "string",
          "name": "",
          "type": "string"
        }
      ],
      "stateMutability": "view",
      "type": "function"
    },
    {
      "inputs": [],
      "name": "totalSupply",
      "outputs": [
        {
          "internalType": "uint256",
          "name": "",
          "type": "uint256"
        }
      ],
      "stateMutability": "view",
      "type": "function"
    },
    {
      "inputs": [
        {
          "internalType": "address",
          "name": "from",
          "type": "address"
        },
        {
          "internalType": "address",
          "name": "to",
          "type": "address"
        },
        {
          "internalType": "uint256",
          "name": "tokenId",
          "type": "uint256"
        }
      ],
      "name": "transferFrom",
      "outputs": [],
      "stateMutability": "nonpayable",
      "type": "function"
    },
    {
      "inputs": [
        {
          "internalType": "address",
          "name": "newOwner",
          "type": "address"
        }
      ],
      "name": "transferOwnership",
      "outputs": [],
      "stateMutability": "nonpayable",
      "type": "function"
    },
    {
      "inputs": [
        {
          "internalType": "bool",
          "name": "newState",
          "type": "bool"
        }
      ],
      "name": "setSaleState",
      "outputs": [],
      "stateMutability": "nonpayable",
      "type": "function"
    },
    {
      "inputs": [
        {
          "internalType": "uint256",
          "name": "numberOfTokens",
          "type": "uint256"
        }
      ],
      "name": "mint",
      "outputs": [],
      "stateMutability": "payable",
      "type": "function"
    },
    {
      "inputs": [
        {
          "internalType": "uint256",
          "name": "numberOfTokens",
          "type": "uint256"
        }
      ],
      "name": "reserve",
      "outputs": [],
      "stateMutability": "nonpayable",
      "type": "function"
    },
    {
      "inputs": [],
      "name": "withdraw",
      "outputs": [],
      "stateMutability": "nonpayable",
      "type": "function"
    },
    {
      "inputs": [
        {
          "internalType": "uint256",
          "name": "maxPublicMint",
          "type": "uint256"
        }
      ],
      "name": "setMaxPublicMint",
      "outputs": [],
      "stateMutability": "nonpayable",
      "type": "function"
    },
    {
      "inputs": [
        {
          "internalType": "uint256",
          "name": "pricePerToken",
          "type": "uint256"
        }
      ],
      "name": "setPricePerToken",
      "outputs": [],
      "stateMutability": "nonpayable",
      "type": "function"
    },
    {
      "inputs": [
        {
          "internalType": "string",
          "name": "provenance",
          "type": "string"
        }
      ],
      "name": "setProvenance",
      "outputs": [],
      "stateMutability": "nonpayable",
      "type": "function"
    },
    {
      "inputs": [
        {
          "internalType": "string",
          "name": "baseURI_",
          "type": "string"
        }
      ],
      "name": "setBaseURI",
      "outputs": [],
      "stateMutability": "nonpayable",
      "type": "function"
    },
    {
      "inputs": [
        {
          "internalType": "address",
          "name": "_receiver",
          "type": "address"
        },
        {
          "internalType": "uint96",
          "name": "_feeNumerator",
          "type": "uint96"
        }
      ],
      "name": "setDefaultRoyalty",
      "outputs": [],
      "stateMutability": "nonpayable",
      "type": "function"
    },
    {
      "inputs": [
        {
          "internalType": "bytes4",
          "name": "interfaceId",
          "type": "bytes4"
        }
      ],
      "name": "supportsInterface",
      "outputs": [
        {
          "internalType": "bool",
          "name": "",
          "type": "bool"
        }
      ],
      "stateMutability": "view",
      "type": "function"
    }
  ],
  "bytecode": "0x60806040526000600c60146101000a81548160ff0219169083151502179055503480156200002c57600080fd5b506040518060400160405280600b81526020017f4c6f74734f664c617567680000000000000000000000000000000000000000008152506040518060400160405280600381526020017f4c4f4c00000000000000000000000000000000000000000000000000000000008152508160029080519060200190620000b1929190620001c1565b508060039080519060200190620000ca929190620001c1565b505050620000ed620000e1620000f360201b60201c565b620000fb60201b60201c565b620002d6565b600033905090565b6000600c60009054906101000a900473ffffffffffffffffffffffffffffffffffffffff16905081600c60006101000a81548173ffffffffffffffffffffffffffffffffffffffff021916908373ffffffffffffffffffffffffffffffffffffffff1602179055508173ffffffffffffffffffffffffffffffffffffffff168173ffffffffffffffffffffffffffffffffffffffff167f8be0079c531659141344cd1fd0a4f28419497f9722a3daafe3b4186f6b6457e060405160405180910390a35050565b828054620001cf90620002a0565b90600052602060002090601f016020900481019282620001f357600085556200023f565b82601f106200020e57805160ff19168380011785556200023f565b828001600101855582156200023f579182015b828111156200023e57825182559160200191906001019062000221565b5b5090506200024e919062000252565b5090565b5b808211156200026d57600081600090555060010162000253565b5090565b7f4e487b7100000000000000000000000000000000000000000000000000000000600052602260045260246000fd5b60006002820490506001821680620002b957607f821691505b60208210811415620002d057620002cf62000271565b5b50919050565b614ad080620002e66000396000f3fe60806040526004361061020f5760003560e01c806365f1309711610118578063ad2f852a116100a0578063c87b56dd1161006f578063c87b56dd1461077b578063e985e9c5146107b8578063eb8d2444146107f5578063f2fde38b14610820578063ffe630b5146108495761020f565b8063ad2f852a146106d3578063b88d4fde146106fe578063c4e3709514610727578063c63adb2b146107505761020f565b8063833b9499116100e7578063833b94991461060d5780638da5cb5b1461063857806395d89b4114610663578063a0712d681461068e578063a22cb465146106aa5761020f565b806365f130971461056557806370a0823114610590578063715018a6146105cd578063819b25ba146105e45761020f565b80632bf2762f1161019b57806342842e0e1161016a57806342842e0e1461046e5780634f6ccce71461049757806355f804b3146104d45780636352211e146104fd5780636373a6b11461053a5761020f565b80632bf2762f146103c65780632f745c59146103ef57806332cb6b0c1461042c5780633ccfd60b146104575761020f565b8063095ea7b3116101e2578063095ea7b3146102e257806318160ddd1461030b57806323b872dd14610336578063270ab52c1461035f5780632a55205a146103885761020f565b806301ffc9a71461021457806304634d8d1461025157806306fdde031461027a578063081812fc146102a5575b600080fd5b34801561022057600080fd5b5061023b60048036038101906102369190613214565b610872565b604051610248919061325c565b60405180910390f35b34801561025d57600080fd5b5061027860048036038101906102739190613319565b610884565b005b34801561028657600080fd5b5061028f6109bc565b60405161029c91906133f2565b60405180910390f35b3480156102b157600080fd5b506102cc60048036038101906102c7919061344a565b610a4e565b6040516102d99190613486565b60405180910390f35b3480156102ee57600080fd5b50610309600480360381019061030491906134a1565b610ad3565b005b34801561031757600080fd5b50610320610beb565b60405161032d91906134f0565b60405180910390f35b34801561034257600080fd5b5061035d6004803603810190610358919061350b565b610bf8565b005b34801561036b57600080fd5b506103866004803603810190610381919061344a565b610c58565b005b34801561039457600080fd5b506103af60048036038101906103aa919061355e565b610cde565b6040516103bd92919061359e565b60405180910390f35b3480156103d257600080fd5b506103ed60048036038101906103e8919061344a565b610ec9565b005b3480156103fb57600080fd5b50610416600480360381019061041191906134a1565b610f4f565b60405161042391906134f0565b60405180910390f35b34801561043857600080fd5b50610441610ff4565b60405161044e91906134f0565b60405180910390f35b34801561046357600080fd5b5061046c610ff9565b005b34801561047a57600080fd5b506104956004803603810190610490919061350b565b6110c4565b005b3480156104a357600080fd5b506104be60048036038101906104b9919061344a565b6110e4565b6040516104cb91906134f0565b60405180910390f35b3480156104e057600080fd5b506104fb60048036038101906104f691906136fc565b611155565b005b34801561050957600080fd5b50610524600480360381019061051f919061344a565b6111eb565b6040516105319190613486565b60405180910390f35b34801561054657600080fd5b5061054f61129d565b60405161055c91906133f2565b60405180910390f35b34801561057157600080fd5b5061057a61132b565b60405161058791906134f0565b60405180910390f35b34801561059c57600080fd5b506105b760048036038101906105b29190613745565b611331565b6040516105c491906134f0565b60405180910390f35b3480156105d957600080fd5b506105e26113e9565b005b3480156105f057600080fd5b5061060b6004803603810190610606919061344a565b611471565b005b34801561061957600080fd5b50610622611584565b60405161062f91906134f0565b60405180910390f35b34801561064457600080fd5b5061064d61158a565b60405161065a9190613486565b60405180910390f35b34801561066f57600080fd5b506106786115b4565b60405161068591906133f2565b60405180910390f35b6106a860048036038101906106a3919061344a565b611646565b005b3480156106b657600080fd5b506106d160048036038101906106cc919061379e565b6117bd565b005b3480156106df57600080fd5b506106e86117d3565b6040516106f59190613486565b60405180910390f35b34801561070a57600080fd5b506107256004803603810190610720919061387f565b6117f9565b005b34801561073357600080fd5b5061074e60048036038101906107499190613902565b61185b565b005b34801561075c57600080fd5b506107656118f4565b604051610772919061393e565b60405180910390f35b34801561078757600080fd5b506107a2600480360381019061079d919061344a565b611912565b6040516107af91906133f2565b60405180910390f35b3480156107c457600080fd5b506107df60048036038101906107da9190613959565b6119b9565b6040516107ec919061325c565b60405180910390f35b34801561080157600080fd5b5061080a611a4d565b604051610817919061325c565b60405180910390f35b34801561082c57600080fd5b5061084760048036038101906108429190613745565b611a60565b005b34801561085557600080fd5b50610870600480360381019061086b91906136fc565b611b58565b005b600061087d82611bee565b9050919050565b61088c611c00565b73ffffffffffffffffffffffffffffffffffffffff166108aa61158a565b73ffffffffffffffffffffffffffffffffffffffff1614610900576040517f08c379a00000000000000000000000000000000000000000000000000000000081526004016108f7906139e5565b60405180910390fd5b81601160006101000a81548173ffffffffffffffffffffffffffffffffffffffff021916908373ffffffffffffffffffffffffffffffffffffffff16021790555080601160146101000a8154816bffffffffffffffffffffffff02191690836bffffffffffffffffffffffff1602179055506109b8601160009054906101000a900473ffffffffffffffffffffffffffffffffffffffff16601160149054906101000a90046bffffffffffffffffffffffff16611c08565b5050565b6060600280546109cb90613a34565b80601f01602080910402602001604051908101604052809291908181526020018280546109f790613a34565b8015610a445780601f10610a1957610100808354040283529160200191610a44565b820191906000526020600020905b815481529060010190602001808311610a2757829003601f168201915b5050505050905090565b6000610a5982611d9d565b610a98576040517f08c379a0000000000000000000000000000000000000000000000000000000008152600401610a8f90613ad8565b60405180910390fd5b6006600083815260200190815260200160002060009054906101000a900473ffffffffffffffffffffffffffffffffffffffff169050919050565b6000610ade826111eb565b90508073ffffffffffffffffffffffffffffffffffffffff168373ffffffffffffffffffffffffffffffffffffffff161415610b4f576040517f08c379a0000000000000000000000000000000000000000000000000000000008152600401610b4690613b6a565b60405180910390fd5b8073ffffffffffffffffffffffffffffffffffffffff16610b6e611c00565b73ffffffffffffffffffffffffffffffffffffffff161480610b9d5750610b9c81610b97611c00565b6119b9565b5b610bdc576040517f08c379a0000000000000000000000000000000000000000000000000000000008152600401610bd390613bfc565b60405180910390fd5b610be68383611e09565b505050565b6000600a80549050905090565b610c09610c03611c00565b82611ec2565b610c48576040517f08c379a0000000000000000000000000000000000000000000000000000000008152600401610c3f90613c8e565b60405180910390fd5b610c53838383611fa0565b505050565b610c60611c00565b73ffffffffffffffffffffffffffffffffffffffff16610c7e61158a565b73ffffffffffffffffffffffffffffffffffffffff1614610cd4576040517f08c379a0000000000000000000000000000000000000000000000000000000008152600401610ccb906139e5565b60405180910390fd5b80600d8190555050565b6000806000600160008681526020019081526020016000206040518060400160405290816000820160009054906101000a900473ffffffffffffffffffffffffffffffffffffffff1673ffffffffffffffffffffffffffffffffffffffff1673ffffffffffffffffffffffffffffffffffffffff1681526020016000820160149054906101000a90046bffffffffffffffffffffffff166bffffffffffffffffffffffff166bffffffffffffffffffffffff16815250509050600073ffffffffffffffffffffffffffffffffffffffff16816000015173ffffffffffffffffffffffffffffffffffffffff161415610e745760006040518060400160405290816000820160009054906101000a900473ffffffffffffffffffffffffffffffffffffffff1673ffffffffffffffffffffffffffffffffffffffff1673ffffffffffffffffffffffffffffffffffffffff1681526020016000820160149054906101000a90046bffffffffffffffffffffffff166bffffffffffffffffffffffff166bffffffffffffffffffffffff168152505090505b6000610e7e612207565b6bffffffffffffffffffffffff1682602001516bffffffffffffffffffffffff1686610eaa9190613cdd565b610eb49190613d66565b90508160000151819350935050509250929050565b610ed1611c00565b73ffffffffffffffffffffffffffffffffffffffff16610eef61158a565b73ffffffffffffffffffffffffffffffffffffffff1614610f45576040517f08c379a0000000000000000000000000000000000000000000000000000000008152600401610f3c906139e5565b60405180910390fd5b80600e8190555050565b6000610f5a83611331565b8210610f9b576040517f08c379a0000000000000000000000000000000000000000000000000000000008152600401610f9290613e09565b60405180910390fd5b600860008473ffffffffffffffffffffffffffffffffffffffff1673ffffffffffffffffffffffffffffffffffffffff168152602001908152602001600020600083815260200190815260200160002054905092915050565b600381565b611001611c00565b73ffffffffffffffffffffffffffffffffffffffff1661101f61158a565b73ffffffffffffffffffffffffffffffffffffffff1614611075576040517f08c379a000000000000000000000000000000000000000000000000000000000815260040161106c906139e5565b60405180910390fd5b60004790503373ffffffffffffffffffffffffffffffffffffffff166108fc829081150290604051600060405180830381858888f193505050501580156110c0573d6000803e3d6000fd5b5050565b6110df838383604051806020016040528060008152506117f9565b505050565b60006110ee610beb565b821061112f576040517f08c379a000000000000000000000000000000000000000000000000000000000815260040161112690613e9b565b60405180910390fd5b600a828154811061114357611142613ebb565b5b90600052602060002001549050919050565b61115d611c00565b73ffffffffffffffffffffffffffffffffffffffff1661117b61158a565b73ffffffffffffffffffffffffffffffffffffffff16146111d1576040517f08c379a00000000000000000000000000000000000000000000000000000000081526004016111c8906139e5565b60405180910390fd5b80601090805190602001906111e7929190613105565b5050565b6000806004600084815260200190815260200160002060009054906101000a900473ffffffffffffffffffffffffffffffffffffffff169050600073ffffffffffffffffffffffffffffffffffffffff168173ffffffffffffffffffffffffffffffffffffffff161415611294576040517f08c379a000000000000000000000000000000000000000000000000000000000815260040161128b90613f5c565b60405180910390fd5b80915050919050565b600f80546112aa90613a34565b80601f01602080910402602001604051908101604052809291908181526020018280546112d690613a34565b80156113235780601f106112f857610100808354040283529160200191611323565b820191906000526020600020905b81548152906001019060200180831161130657829003601f168201915b505050505081565b600d5481565b60008073ffffffffffffffffffffffffffffffffffffffff168273ffffffffffffffffffffffffffffffffffffffff1614156113a2576040517f08c379a000000000000000000000000000000000000000000000000000000000815260040161139990613fee565b60405180910390fd5b600560008373ffffffffffffffffffffffffffffffffffffffff1673ffffffffffffffffffffffffffffffffffffffff168152602001908152602001600020549050919050565b6113f1611c00565b73ffffffffffffffffffffffffffffffffffffffff1661140f61158a565b73ffffffffffffffffffffffffffffffffffffffff1614611465576040517f08c379a000000000000000000000000000000000000000000000000000000000815260040161145c906139e5565b60405180910390fd5b61146f6000612211565b565b611479611c00565b73ffffffffffffffffffffffffffffffffffffffff1661149761158a565b73ffffffffffffffffffffffffffffffffffffffff16146114ed576040517f08c379a00000000000000000000000000000000000000000000000000000000081526004016114e4906139e5565b60405180910390fd5b60006114f7610beb565b9050600060038383611509919061400e565b111561154a576040517f08c379a0000000000000000000000000000000000000000000000000000000008152600401611541906140d6565b60405180910390fd5b600090505b8281101561157f5761156c338284611567919061400e565b6122d7565b8080611577906140f6565b91505061154f565b505050565b600e5481565b6000600c60009054906101000a900473ffffffffffffffffffffffffffffffffffffffff16905090565b6060600380546115c390613a34565b80601f01602080910402602001604051908101604052809291908181526020018280546115ef90613a34565b801561163c5780601f106116115761010080835404028352916020019161163c565b820191906000526020600020905b81548152906001019060200180831161161f57829003601f168201915b5050505050905090565b6000611650610beb565b9050600c60149054906101000a900460ff166116a1576040517f08c379a0000000000000000000000000000000000000000000000000000000008152600401611698906141b1565b60405180910390fd5b600d548211156116e6576040517f08c379a00000000000000000000000000000000000000000000000000000000081526004016116dd9061421d565b60405180910390fd5b600382826116f4919061400e565b1115611735576040517f08c379a000000000000000000000000000000000000000000000000000000000815260040161172c90614289565b60405180910390fd5b3482600e546117449190613cdd565b1115611785576040517f08c379a000000000000000000000000000000000000000000000000000000000815260040161177c906142f5565b60405180910390fd5b60005b828110156117b8576117a53382846117a0919061400e565b6122d7565b80806117b0906140f6565b915050611788565b505050565b6117cf6117c8611c00565b83836122f5565b5050565b601160009054906101000a900473ffffffffffffffffffffffffffffffffffffffff1681565b61180a611804611c00565b83611ec2565b611849576040517f08c379a000000000000000000000000000000000000000000000000000000000815260040161184090613c8e565b60405180910390fd5b61185584848484612462565b50505050565b611863611c00565b73ffffffffffffffffffffffffffffffffffffffff1661188161158a565b73ffffffffffffffffffffffffffffffffffffffff16146118d7576040517f08c379a00000000000000000000000000000000000000000000000000000000081526004016118ce906139e5565b60405180910390fd5b80600c60146101000a81548160ff02191690831515021790555050565b601160149054906101000a90046bffffffffffffffffffffffff1681565b606061191d82611d9d565b61195c576040517f08c379a000000000000000000000000000000000000000000000000000000000815260040161195390614387565b60405180910390fd5b60006119666124be565b9050600081511161198657604051806020016040528060008152506119b1565b8061199084612550565b6040516020016119a19291906143e3565b6040516020818303038152906040525b915050919050565b6000600760008473ffffffffffffffffffffffffffffffffffffffff1673ffffffffffffffffffffffffffffffffffffffff16815260200190815260200160002060008373ffffffffffffffffffffffffffffffffffffffff1673ffffffffffffffffffffffffffffffffffffffff16815260200190815260200160002060009054906101000a900460ff16905092915050565b600c60149054906101000a900460ff1681565b611a68611c00565b73ffffffffffffffffffffffffffffffffffffffff16611a8661158a565b73ffffffffffffffffffffffffffffffffffffffff1614611adc576040517f08c379a0000000000000000000000000000000000000000000000000000000008152600401611ad3906139e5565b60405180910390fd5b600073ffffffffffffffffffffffffffffffffffffffff168173ffffffffffffffffffffffffffffffffffffffff161415611b4c576040517f08c379a0000000000000000000000000000000000000000000000000000000008152600401611b4390614479565b60405180910390fd5b611b5581612211565b50565b611b60611c00565b73ffffffffffffffffffffffffffffffffffffffff16611b7e61158a565b73ffffffffffffffffffffffffffffffffffffffff1614611bd4576040517f08c379a0000000000000000000000000000000000000000000000000000000008152600401611bcb906139e5565b60405180910390fd5b80600f9080519060200190611bea929190613105565b5050565b6000611bf9826126b1565b9050919050565b600033905090565b611c10612207565b6bffffffffffffffffffffffff16816bffffffffffffffffffffffff161115611c6e576040517f08c379a0000000000000000000000000000000000000000000000000000000008152600401611c659061450b565b60405180910390fd5b600073ffffffffffffffffffffffffffffffffffffffff168273ffffffffffffffffffffffffffffffffffffffff161415611cde576040517f08c379a0000000000000000000000000000000000000000000000000000000008152600401611cd590614577565b60405180910390fd5b60405180604001604052808373ffffffffffffffffffffffffffffffffffffffff168152602001826bffffffffffffffffffffffff168152506000808201518160000160006101000a81548173ffffffffffffffffffffffffffffffffffffffff021916908373ffffffffffffffffffffffffffffffffffffffff16021790555060208201518160000160146101000a8154816bffffffffffffffffffffffff02191690836bffffffffffffffffffffffff1602179055509050505050565b60008073ffffffffffffffffffffffffffffffffffffffff166004600084815260200190815260200160002060009054906101000a900473ffffffffffffffffffffffffffffffffffffffff1673ffffffffffffffffffffffffffffffffffffffff1614159050919050565b816006600083815260200190815260200160002060006101000a81548173ffffffffffffffffffffffffffffffffffffffff021916908373ffffffffffffffffffffffffffffffffffffffff160217905550808273ffffffffffffffffffffffffffffffffffffffff16611e7c836111eb565b73ffffffffffffffffffffffffffffffffffffffff167f8c5be1e5ebec7d5bd14f71427d1e84f3dd0314c0f7b2291e5b200ac8c7c3b92560405160405180910390a45050565b6000611ecd82611d9d565b611f0c576040517f08c379a0000000000000000000000000000000000000000000000000000000008152600401611f0390614609565b60405180910390fd5b6000611f17836111eb565b90508073ffffffffffffffffffffffffffffffffffffffff168473ffffffffffffffffffffffffffffffffffffffff161480611f595750611f5881856119b9565b5b80611f9757508373ffffffffffffffffffffffffffffffffffffffff16611f7f84610a4e565b73ffffffffffffffffffffffffffffffffffffffff16145b91505092915050565b8273ffffffffffffffffffffffffffffffffffffffff16611fc0826111eb565b73ffffffffffffffffffffffffffffffffffffffff1614612016576040517f08c379a000000000000000000000000000000000000000000000000000000000815260040161200d9061469b565b60405180910390fd5b600073ffffffffffffffffffffffffffffffffffffffff168273ffffffffffffffffffffffffffffffffffffffff161415612086576040517f08c379a000000000000000000000000000000000000000000000000000000000815260040161207d9061472d565b60405180910390fd5b61209183838361272b565b61209c600082611e09565b6001600560008573ffffffffffffffffffffffffffffffffffffffff1673ffffffffffffffffffffffffffffffffffffffff16815260200190815260200160002060008282546120ec919061474d565b925050819055506001600560008473ffffffffffffffffffffffffffffffffffffffff1673ffffffffffffffffffffffffffffffffffffffff1681526020019081526020016000206000828254612143919061400e565b92505081905550816004600083815260200190815260200160002060006101000a81548173ffffffffffffffffffffffffffffffffffffffff021916908373ffffffffffffffffffffffffffffffffffffffff160217905550808273ffffffffffffffffffffffffffffffffffffffff168473ffffffffffffffffffffffffffffffffffffffff167fddf252ad1be2c89b69c2b068fc378daa952ba7f163c4a11628f55a4df523b3ef60405160405180910390a461220283838361273b565b505050565b6000612710905090565b6000600c60009054906101000a900473ffffffffffffffffffffffffffffffffffffffff16905081600c60006101000a81548173ffffffffffffffffffffffffffffffffffffffff021916908373ffffffffffffffffffffffffffffffffffffffff1602179055508173ffffffffffffffffffffffffffffffffffffffff168173ffffffffffffffffffffffffffffffffffffffff167f8be0079c531659141344cd1fd0a4f28419497f9722a3daafe3b4186f6b6457e060405160405180910390a35050565b6122f1828260405180602001604052806000815250612740565b5050565b8173ffffffffffffffffffffffffffffffffffffffff168373ffffffffffffffffffffffffffffffffffffffff161415612364576040517f08c379a000000000000000000000000000000000000000000000000000000000815260040161235b906147cd565b60405180910390fd5b80600760008573ffffffffffffffffffffffffffffffffffffffff1673ffffffffffffffffffffffffffffffffffffffff16815260200190815260200160002060008473ffffffffffffffffffffffffffffffffffffffff1673ffffffffffffffffffffffffffffffffffffffff16815260200190815260200160002060006101000a81548160ff0219169083151502179055508173ffffffffffffffffffffffffffffffffffffffff168373ffffffffffffffffffffffffffffffffffffffff167f17307eab39ab6107e8899845ad3d59bd9653f200f220920489ca2b5937696c3183604051612455919061325c565b60405180910390a3505050565b61246d848484611fa0565b6124798484848461279b565b6124b8576040517f08c379a00000000000000000000000000000000000000000000000000000000081526004016124af9061485f565b60405180910390fd5b50505050565b6060601080546124cd90613a34565b80601f01602080910402602001604051908101604052809291908181526020018280546124f990613a34565b80156125465780601f1061251b57610100808354040283529160200191612546565b820191906000526020600020905b81548152906001019060200180831161252957829003601f168201915b5050505050905090565b60606000821415612598576040518060400160405280600181526020017f300000000000000000000000000000000000000000000000000000000000000081525090506126ac565b600082905060005b600082146125ca5780806125b3906140f6565b915050600a826125c39190613d66565b91506125a0565b60008167ffffffffffffffff8111156125e6576125e56135d1565b5b6040519080825280601f01601f1916602001820160405280156126185781602001600182028036833780820191505090505b5090505b600085146126a557600182612631919061474d565b9150600a85612640919061487f565b603061264c919061400e565b60f81b81838151811061266257612661613ebb565b5b60200101907effffffffffffffffffffffffffffffffffffffffffffffffffffffffffffff1916908160001a905350600a8561269e9190613d66565b945061261c565b8093505050505b919050565b60007f780e9d63000000000000000000000000000000000000000000000000000000007bffffffffffffffffffffffffffffffffffffffffffffffffffffffff1916827bffffffffffffffffffffffffffffffffffffffffffffffffffffffff19161480612724575061272382612923565b5b9050919050565b612736838383612a05565b505050565b505050565b61274a8383612b19565b612757600084848461279b565b612796576040517f08c379a000000000000000000000000000000000000000000000000000000000815260040161278d9061485f565b60405180910390fd5b505050565b60006127bc8473ffffffffffffffffffffffffffffffffffffffff16612cf3565b15612916578373ffffffffffffffffffffffffffffffffffffffff1663150b7a026127e5611c00565b8786866040518563ffffffff1660e01b81526004016128079493929190614905565b6020604051808303816000875af192505050801561284357506040513d601f19601f820116820180604052508101906128409190614966565b60015b6128c6573d8060008114612873576040519150601f19603f3d011682016040523d82523d6000602084013e612878565b606091505b506000815114156128be576040517f08c379a00000000000000000000000000000000000000000000000000000000081526004016128b59061485f565b60405180910390fd5b805181602001fd5b63150b7a0260e01b7bffffffffffffffffffffffffffffffffffffffffffffffffffffffff1916817bffffffffffffffffffffffffffffffffffffffffffffffffffffffff19161491505061291b565b600190505b949350505050565b60007f80ac58cd000000000000000000000000000000000000000000000000000000007bffffffffffffffffffffffffffffffffffffffffffffffffffffffff1916827bffffffffffffffffffffffffffffffffffffffffffffffffffffffff191614806129ee57507f5b5e139f000000000000000000000000000000000000000000000000000000007bffffffffffffffffffffffffffffffffffffffffffffffffffffffff1916827bffffffffffffffffffffffffffffffffffffffffffffffffffffffff1916145b806129fe57506129fd82612d16565b5b9050919050565b612a10838383612d90565b600073ffffffffffffffffffffffffffffffffffffffff168373ffffffffffffffffffffffffffffffffffffffff161415612a5357612a4e81612d95565b612a92565b8173ffffffffffffffffffffffffffffffffffffffff168373ffffffffffffffffffffffffffffffffffffffff1614612a9157612a908382612dde565b5b5b600073ffffffffffffffffffffffffffffffffffffffff168273ffffffffffffffffffffffffffffffffffffffff161415612ad557612ad081612f4b565b612b14565b8273ffffffffffffffffffffffffffffffffffffffff168273ffffffffffffffffffffffffffffffffffffffff1614612b1357612b12828261301c565b5b5b505050565b600073ffffffffffffffffffffffffffffffffffffffff168273ffffffffffffffffffffffffffffffffffffffff161415612b89576040517f08c379a0000000000000000000000000000000000000000000000000000000008152600401612b80906149df565b60405180910390fd5b612b9281611d9d565b15612bd2576040517f08c379a0000000000000000000000000000000000000000000000000000000008152600401612bc990614a4b565b60405180910390fd5b612bde6000838361272b565b6001600560008473ffffffffffffffffffffffffffffffffffffffff1673ffffffffffffffffffffffffffffffffffffffff1681526020019081526020016000206000828254612c2e919061400e565b92505081905550816004600083815260200190815260200160002060006101000a81548173ffffffffffffffffffffffffffffffffffffffff021916908373ffffffffffffffffffffffffffffffffffffffff160217905550808273ffffffffffffffffffffffffffffffffffffffff16600073ffffffffffffffffffffffffffffffffffffffff167fddf252ad1be2c89b69c2b068fc378daa952ba7f163c4a11628f55a4df523b3ef60405160405180910390a4612cef6000838361273b565b5050565b6000808273ffffffffffffffffffffffffffffffffffffffff163b119050919050565b60007f2a55205a000000000000000000000000000000000000000000000000000000007bffffffffffffffffffffffffffffffffffffffffffffffffffffffff1916827bffffffffffffffffffffffffffffffffffffffffffffffffffffffff19161480612d895750612d888261309b565b5b9050919050565b505050565b600a80549050600b600083815260200190815260200160002081905550600a81908060018154018082558091505060019003906000526020600020016000909190919091505550565b60006001612deb84611331565b612df5919061474d565b9050600060096000848152602001908152602001600020549050818114612eda576000600860008673ffffffffffffffffffffffffffffffffffffffff1673ffffffffffffffffffffffffffffffffffffffff168152602001908152602001600020600084815260200190815260200160002054905080600860008773ffffffffffffffffffffffffffffffffffffffff1673ffffffffffffffffffffffffffffffffffffffff168152602001908152602001600020600084815260200190815260200160002081905550816009600083815260200190815260200160002081905550505b6009600084815260200190815260200160002060009055600860008573ffffffffffffffffffffffffffffffffffffffff1673ffffffffffffffffffffffffffffffffffffffff16815260200190815260200160002060008381526020019081526020016000206000905550505050565b60006001600a80549050612f5f919061474d565b90506000600b60008481526020019081526020016000205490506000600a8381548110612f8f57612f8e613ebb565b5b9060005260206000200154905080600a8381548110612fb157612fb0613ebb565b5b906000526020600020018190555081600b600083815260200190815260200160002081905550600b600085815260200190815260200160002060009055600a80548061300057612fff614a6b565b5b6001900381819060005260206000200160009055905550505050565b600061302783611331565b905081600860008573ffffffffffffffffffffffffffffffffffffffff1673ffffffffffffffffffffffffffffffffffffffff168152602001908152602001600020600083815260200190815260200160002081905550806009600084815260200190815260200160002081905550505050565b60007f01ffc9a7000000000000000000000000000000000000000000000000000000007bffffffffffffffffffffffffffffffffffffffffffffffffffffffff1916827bffffffffffffffffffffffffffffffffffffffffffffffffffffffff1916149050919050565b82805461311190613a34565b90600052602060002090601f016020900481019282613133576000855561317a565b82601f1061314c57805160ff191683800117855561317a565b8280016001018555821561317a579182015b8281111561317957825182559160200191906001019061315e565b5b509050613187919061318b565b5090565b5b808211156131a457600081600090555060010161318c565b5090565b6000604051905090565b600080fd5b600080fd5b60007fffffffff0000000000000000000000000000000000000000000000000000000082169050919050565b6131f1816131bc565b81146131fc57600080fd5b50565b60008135905061320e816131e8565b92915050565b60006020828403121561322a576132296131b2565b5b6000613238848285016131ff565b91505092915050565b60008115159050919050565b61325681613241565b82525050565b6000602082019050613271600083018461324d565b92915050565b600073ffffffffffffffffffffffffffffffffffffffff82169050919050565b60006132a282613277565b9050919050565b6132b281613297565b81146132bd57600080fd5b50565b6000813590506132cf816132a9565b92915050565b60006bffffffffffffffffffffffff82169050919050565b6132f6816132d5565b811461330157600080fd5b50565b600081359050613313816132ed565b92915050565b600080604083850312156133305761332f6131b2565b5b600061333e858286016132c0565b925050602061334f85828601613304565b9150509250929050565b600081519050919050565b600082825260208201905092915050565b60005b83811015613393578082015181840152602081019050613378565b838111156133a2576000848401525b50505050565b6000601f19601f8301169050919050565b60006133c482613359565b6133ce8185613364565b93506133de818560208601613375565b6133e7816133a8565b840191505092915050565b6000602082019050818103600083015261340c81846133b9565b905092915050565b6000819050919050565b61342781613414565b811461343257600080fd5b50565b6000813590506134448161341e565b92915050565b6000602082840312156134605761345f6131b2565b5b600061346e84828501613435565b91505092915050565b61348081613297565b82525050565b600060208201905061349b6000830184613477565b92915050565b600080604083850312156134b8576134b76131b2565b5b60006134c6858286016132c0565b92505060206134d785828601613435565b9150509250929050565b6134ea81613414565b82525050565b600060208201905061350560008301846134e1565b92915050565b600080600060608486031215613524576135236131b2565b5b6000613532868287016132c0565b9350506020613543868287016132c0565b925050604061355486828701613435565b9150509250925092565b60008060408385031215613575576135746131b2565b5b600061358385828601613435565b925050602061359485828601613435565b9150509250929050565b60006040820190506135b36000830185613477565b6135c060208301846134e1565b9392505050565b600080fd5b600080fd5b7f4e487b7100000000000000000000000000000000000000000000000000000000600052604160045260246000fd5b613609826133a8565b810181811067ffffffffffffffff82111715613628576136276135d1565b5b80604052505050565b600061363b6131a8565b90506136478282613600565b919050565b600067ffffffffffffffff821115613667576136666135d1565b5b613670826133a8565b9050602081019050919050565b82818337600083830152505050565b600061369f61369a8461364c565b613631565b9050828152602081018484840111156136bb576136ba6135cc565b5b6136c684828561367d565b509392505050565b600082601f8301126136e3576136e26135c7565b5b81356136f384826020860161368c565b91505092915050565b600060208284031215613712576137116131b2565b5b600082013567ffffffffffffffff8111156137305761372f6131b7565b5b61373c848285016136ce565b91505092915050565b60006020828403121561375b5761375a6131b2565b5b6000613769848285016132c0565b91505092915050565b61377b81613241565b811461378657600080fd5b50565b60008135905061379881613772565b92915050565b600080604083850312156137b5576137b46131b2565b5b60006137c3858286016132c0565b92505060206137d485828601613789565b9150509250929050565b600067ffffffffffffffff8211156137f9576137f86135d1565b5b613802826133a8565b9050602081019050919050565b600061382261381d846137de565b613631565b90508281526020810184848401111561383e5761383d6135cc565b5b61384984828561367d565b509392505050565b600082601f830112613866576138656135c7565b5b813561387684826020860161380f565b91505092915050565b60008060008060808587031215613899576138986131b2565b5b60006138a7878288016132c0565b94505060206138b8878288016132c0565b93505060406138c987828801613435565b925050606085013567ffffffffffffffff8111156138ea576138e96131b7565b5b6138f687828801613851565b91505092959194509250565b600060208284031215613918576139176131b2565b5b600061392684828501613789565b91505092915050565b613938816132d5565b82525050565b6000602082019050613953600083018461392f565b92915050565b600080604083850312156139705761396f6131b2565b5b600061397e858286016132c0565b925050602061398f858286016132c0565b9150509250929050565b7f4f776e61626c653a2063616c6c6572206973206e6f7420746865206f776e6572600082015250565b60006139cf602083613364565b91506139da82613999565b602082019050919050565b600060208201905081810360008301526139fe816139c2565b9050919050565b7f4e487b7100000000000000000000000000000000000000000000000000000000600052602260045260246000fd5b60006002820490506001821680613a4c57607f821691505b60208210811415613a6057613a5f613a05565b5b50919050565b7f4552433732313a20617070726f76656420717565727920666f72206e6f6e657860008201527f697374656e7420746f6b656e0000000000000000000000000000000000000000602082015250565b6000613ac2602c83613364565b9150613acd82613a66565b604082019050919050565b60006020820190508181036000830152613af181613ab5565b9050919050565b7f4552433732313a20617070726f76616c20746f2063757272656e74206f776e6560008201527f7200000000000000000000000000000000000000000000000000000000000000602082015250565b6000613b54602183613364565b9150613b5f82613af8565b604082019050919050565b60006020820190508181036000830152613b8381613b47565b9050919050565b7f4552433732313a20617070726f76652063616c6c6572206973206e6f74206f7760008201527f6e6572206e6f7220617070726f76656420666f7220616c6c0000000000000000602082015250565b6000613be6603883613364565b9150613bf182613b8a565b604082019050919050565b60006020820190508181036000830152613c1581613bd9565b9050919050565b7f4552433732313a207472616e736665722063616c6c6572206973206e6f74206f60008201527f776e6572206e6f7220617070726f766564000000000000000000000000000000602082015250565b6000613c78603183613364565b9150613c8382613c1c565b604082019050919050565b60006020820190508181036000830152613ca781613c6b565b9050919050565b7f4e487b7100000000000000000000000000000000000000000000000000000000600052601160045260246000fd5b6000613ce882613414565b9150613cf383613414565b9250817fffffffffffffffffffffffffffffffffffffffffffffffffffffffffffffffff0483118215151615613d2c57613d2b613cae565b5b828202905092915050565b7f4e487b7100000000000000000000000000000000000000000000000000000000600052601260045260246000fd5b6000613d7182613414565b9150613d7c83613414565b925082613d8c57613d8b613d37565b5b828204905092915050565b7f455243373231456e756d657261626c653a206f776e657220696e646578206f7560008201527f74206f6620626f756e6473000000000000000000000000000000000000000000602082015250565b6000613df3602b83613364565b9150613dfe82613d97565b604082019050919050565b60006020820190508181036000830152613e2281613de6565b9050919050565b7f455243373231456e756d657261626c653a20676c6f62616c20696e646578206f60008201527f7574206f6620626f756e64730000000000000000000000000000000000000000602082015250565b6000613e85602c83613364565b9150613e9082613e29565b604082019050919050565b60006020820190508181036000830152613eb481613e78565b9050919050565b7f4e487b7100000000000000000000000000000000000000000000000000000000600052603260045260246000fd5b7f4552433732313a206f776e657220717565727920666f72206e6f6e657869737460008201527f656e7420746f6b656e0000000000000000000000000000000000000000000000602082015250565b6000613f46602983613364565b9150613f5182613eea565b604082019050919050565b60006020820190508181036000830152613f7581613f39565b9050919050565b7f4552433732313a2062616c616e636520717565727920666f7220746865207a6560008201527f726f206164647265737300000000000000000000000000000000000000000000602082015250565b6000613fd8602a83613364565b9150613fe382613f7c565b604082019050919050565b6000602082019050818103600083015261400781613fcb565b9050919050565b600061401982613414565b915061402483613414565b9250827fffffffffffffffffffffffffffffffffffffffffffffffffffffffffffffffff0382111561405957614058613cae565b5b828201905092915050565b7f5265736572766520616d6f756e7420776f756c6420657863656564206d61782060008201527f746f6b656e730000000000000000000000000000000000000000000000000000602082015250565b60006140c0602683613364565b91506140cb82614064565b604082019050919050565b600060208201905081810360008301526140ef816140b3565b9050919050565b600061410182613414565b91507fffffffffffffffffffffffffffffffffffffffffffffffffffffffffffffffff82141561413457614133613cae565b5b600182019050919050565b7f53616c65206d7573742062652061637469766520746f206d696e7420746f6b6560008201527f6e73000000000000000000000000000000000000000000000000000000000000602082015250565b600061419b602283613364565b91506141a68261413f565b604082019050919050565b600060208201905081810360008301526141ca8161418e565b9050919050565b7f4578636565646564206d617820746f6b656e2070757263686173650000000000600082015250565b6000614207601b83613364565b9150614212826141d1565b602082019050919050565b60006020820190508181036000830152614236816141fa565b9050919050565b7f507572636861736520776f756c6420657863656564206d617820746f6b656e73600082015250565b6000614273602083613364565b915061427e8261423d565b602082019050919050565b600060208201905081810360008301526142a281614266565b9050919050565b7f45746865722076616c75652073656e74206973206e6f7420636f727265637400600082015250565b60006142df601f83613364565b91506142ea826142a9565b602082019050919050565b6000602082019050818103600083015261430e816142d2565b9050919050565b7f4552433732314d657461646174613a2055524920717565727920666f72206e6f60008201527f6e6578697374656e7420746f6b656e0000000000000000000000000000000000602082015250565b6000614371602f83613364565b915061437c82614315565b604082019050919050565b600060208201905081810360008301526143a081614364565b9050919050565b600081905092915050565b60006143bd82613359565b6143c781856143a7565b93506143d7818560208601613375565b80840191505092915050565b60006143ef82856143b2565b91506143fb82846143b2565b91508190509392505050565b7f4f776e61626c653a206e6577206f776e657220697320746865207a65726f206160008201527f6464726573730000000000000000000000000000000000000000000000000000602082015250565b6000614463602683613364565b915061446e82614407565b604082019050919050565b6000602082019050818103600083015261449281614456565b9050919050565b7f455243323938313a20726f79616c7479206665652077696c6c2065786365656460008201527f2073616c65507269636500000000000000000000000000000000000000000000602082015250565b60006144f5602a83613364565b915061450082614499565b604082019050919050565b60006020820190508181036000830152614524816144e8565b9050919050565b7f455243323938313a20696e76616c696420726563656976657200000000000000600082015250565b6000614561601983613364565b915061456c8261452b565b602082019050919050565b6000602082019050818103600083015261459081614554565b9050919050565b7f4552433732313a206f70657261746f7220717565727920666f72206e6f6e657860008201527f697374656e7420746f6b656e0000000000000000000000000000000000000000602082015250565b60006145f3602c83613364565b91506145fe82614597565b604082019050919050565b60006020820190508181036000830152614622816145e6565b9050919050565b7f4552433732313a207472616e736665722066726f6d20696e636f72726563742060008201527f6f776e6572000000000000000000000000000000000000000000000000000000602082015250565b6000614685602583613364565b915061469082614629565b604082019050919050565b600060208201905081810360008301526146b481614678565b9050919050565b7f4552433732313a207472616e7366657220746f20746865207a65726f2061646460008201527f7265737300000000000000000000000000000000000000000000000000000000602082015250565b6000614717602483613364565b9150614722826146bb565b604082019050919050565b600060208201905081810360008301526147468161470a565b9050919050565b600061475882613414565b915061476383613414565b92508282101561477657614775613cae565b5b828203905092915050565b7f4552433732313a20617070726f766520746f2063616c6c657200000000000000600082015250565b60006147b7601983613364565b91506147c282614781565b602082019050919050565b600060208201905081810360008301526147e6816147aa565b9050919050565b7f4552433732313a207472616e7366657220746f206e6f6e20455243373231526560008201527f63656976657220696d706c656d656e7465720000000000000000000000000000602082015250565b6000614849603283613364565b9150614854826147ed565b604082019050919050565b600060208201905081810360008301526148788161483c565b9050919050565b600061488a82613414565b915061489583613414565b9250826148a5576148a4613d37565b5b828206905092915050565b600081519050919050565b600082825260208201905092915050565b60006148d7826148b0565b6148e181856148bb565b93506148f1818560208601613375565b6148fa816133a8565b840191505092915050565b600060808201905061491a6000830187613477565b6149276020830186613477565b61493460408301856134e1565b818103606083015261494681846148cc565b905095945050505050565b600081519050614960816131e8565b92915050565b60006020828403121561497c5761497b6131b2565b5b600061498a84828501614951565b91505092915050565b7f4552433732313a206d696e7420746f20746865207a65726f2061646472657373600082015250565b60006149c9602083613364565b91506149d482614993565b602082019050919050565b600060208201905081810360008301526149f8816149bc565b9050919050565b7f4552433732313a20746f6b656e20616c7265616479206d696e74656400000000600082015250565b6000614a35601c83613364565b9150614a40826149ff565b602082019050919050565b60006020820190508181036000830152614a6481614a28565b9050919050565b7f4e487b7100000000000000000000000000000000000000000000000000000000600052603160045260246000fdfea264697066735822122072c73f6109a8b59a426714e9c1930a0b1c4f5df3615c663efa4c99301643047664736f6c634300080b0033",
  "immutableReferences": {},
  "source": "// SPDX-License-Identifier: MIT\n\npragma solidity ^0.8.0;\n\nimport \"@openzeppelin/contracts/token/ERC721/ERC721.sol\";\nimport \"@openzeppelin/contracts/access/Ownable.sol\";\nimport \"@openzeppelin/contracts/token/ERC721/extensions/ERC721Enumerable.sol\";\nimport \"@openzeppelin/contracts/token/ERC721/extensions/ERC721Royalty.sol\";\n\ncontract LotsOfLaugh is ERC721, ERC721Enumerable, ERC721Royalty, Ownable {\n\n    /**\n     * Token\n     */\n    uint256 public constant MAX_SUPPLY = 3;\n\n    constructor() ERC721(\"LotsOfLaugh\", \"LOL\") {\n    }\n\n    /**\n     * Mint\n     */\n    bool public saleIsActive = false;\n\n    function setSaleState(bool newState) public onlyOwner {\n        saleIsActive = newState;\n    }\n\n    function mint(uint numberOfTokens) public payable {\n        uint256 ts = totalSupply();\n        require(saleIsActive, \"Sale must be active to mint tokens\");\n        require(numberOfTokens <= MAX_PUBLIC_MINT, \"Exceeded max token purchase\");\n        require(ts + numberOfTokens <= MAX_SUPPLY, \"Purchase would exceed max tokens\");\n        require(PRICE_PER_TOKEN * numberOfTokens <= msg.value, \"Ether value sent is not correct\");\n\n        for (uint256 i = 0; i < numberOfTokens; i++) {\n            _safeMint(msg.sender, ts + i);\n        }\n    }\n\n    /**\n     * Utils\n     */\n    uint256 public MAX_PUBLIC_MINT;\n    uint256 public PRICE_PER_TOKEN;\n\n    string public PROVENANCE;\n    string private _baseURIextended;\n\n    address public royaltyAddress;\n    uint96 public royaltyBps;\n    \n    function reserve(uint numberOfTokens) public onlyOwner {\n      uint256 ts = totalSupply();\n      uint i;\n\n      require(ts + numberOfTokens <= MAX_SUPPLY, \"Reserve amount would exceed max tokens\");\n      for (i = 0; i < numberOfTokens; i++) {\n          _safeMint(msg.sender, ts + i);\n      }\n    }\n\n    function withdraw() public onlyOwner {\n        uint balance = address(this).balance;\n        payable(msg.sender).transfer(balance);\n    }\n\n    function setMaxPublicMint(uint256 maxPublicMint) public onlyOwner {\n        MAX_PUBLIC_MINT = maxPublicMint;\n    }\n\n    function setPricePerToken(uint256 pricePerToken) public onlyOwner {\n        PRICE_PER_TOKEN = pricePerToken;\n    }\n\n    function setProvenance(string memory provenance) public onlyOwner {\n        PROVENANCE = provenance;\n    }\n\n    function setBaseURI(string memory baseURI_) external onlyOwner() {\n        _baseURIextended = baseURI_;\n    }\n\n    function setDefaultRoyalty(address _receiver, uint96 _feeNumerator) public onlyOwner {\n        royaltyAddress = _receiver;\n        royaltyBps = _feeNumerator;\n        \n        _setDefaultRoyalty(royaltyAddress, royaltyBps);\n    }\n\n    function _baseURI() internal view virtual override returns (string memory) {\n        return _baseURIextended;\n    }\n\n    function _beforeTokenTransfer(address from, address to, uint256 tokenId) internal override(ERC721, ERC721Enumerable) {\n        super._beforeTokenTransfer(from, to, tokenId);\n    }\n\n    function supportsInterface(bytes4 interfaceId) public view virtual override(ERC721, ERC721Royalty, ERC721Enumerable) returns (bool) {\n        return super.supportsInterface(interfaceId);\n    }\n\n    function _burn(uint256 tokenId) internal override(ERC721, ERC721Royalty) {\n        super._burn(tokenId);\n    }\n}",
  "sourcePath": "/Users/christiannogueras/Documents/Myprojects/nft-from-scratch/contracts/LotsOfLaugh.sol",
  "compiler": {
    "name": "solc",
    "version": "0.8.11+commit.d7f03943.Emscripten.clang"
  },
  "schemaVersion": "3.4.7",
  "updatedAt": "2022-06-25T20:26:21.193Z",
  "devdoc": {
    "kind": "dev",
    "methods": {
      "approve(address,uint256)": {
        "details": "See {IERC721-approve}."
      },
      "balanceOf(address)": {
        "details": "See {IERC721-balanceOf}."
      },
      "getApproved(uint256)": {
        "details": "See {IERC721-getApproved}."
      },
      "isApprovedForAll(address,address)": {
        "details": "See {IERC721-isApprovedForAll}."
      },
      "name()": {
        "details": "See {IERC721Metadata-name}."
      },
      "owner()": {
        "details": "Returns the address of the current owner."
      },
      "ownerOf(uint256)": {
        "details": "See {IERC721-ownerOf}."
      },
      "renounceOwnership()": {
        "details": "Leaves the contract without owner. It will not be possible to call `onlyOwner` functions anymore. Can only be called by the current owner. NOTE: Renouncing ownership will leave the contract without an owner, thereby removing any functionality that is only available to the owner."
      },
      "royaltyInfo(uint256,uint256)": {
        "details": "Returns how much royalty is owed and to whom, based on a sale price that may be denominated in any unit of exchange. The royalty amount is denominated and should be paid in that same unit of exchange."
      },
      "safeTransferFrom(address,address,uint256)": {
        "details": "See {IERC721-safeTransferFrom}."
      },
      "safeTransferFrom(address,address,uint256,bytes)": {
        "details": "See {IERC721-safeTransferFrom}."
      },
      "setApprovalForAll(address,bool)": {
        "details": "See {IERC721-setApprovalForAll}."
      },
      "symbol()": {
        "details": "See {IERC721Metadata-symbol}."
      },
      "tokenByIndex(uint256)": {
        "details": "See {IERC721Enumerable-tokenByIndex}."
      },
      "tokenOfOwnerByIndex(address,uint256)": {
        "details": "See {IERC721Enumerable-tokenOfOwnerByIndex}."
      },
      "tokenURI(uint256)": {
        "details": "See {IERC721Metadata-tokenURI}."
      },
      "totalSupply()": {
        "details": "See {IERC721Enumerable-totalSupply}."
      },
      "transferFrom(address,address,uint256)": {
        "details": "See {IERC721-transferFrom}."
      },
      "transferOwnership(address)": {
        "details": "Transfers ownership of the contract to a new account (`newOwner`). Can only be called by the current owner."
      }
    },
    "version": 1
  },
  "userdoc": {
    "kind": "user",
    "methods": {
      "MAX_PUBLIC_MINT()": {
        "notice": "Utils"
      },
      "MAX_SUPPLY()": {
        "notice": "Token"
      },
      "saleIsActive()": {
        "notice": "Mint"
      }
    },
    "version": 1
  }
}